{
  "address": "0x34d0D9FCBF0ea42ba0aF562b2EeCD2D170018d95",
  "abi": [
    {
      "inputs": [
        {
          "internalType": "contract CARNFTInterface",
          "name": "_carNFT",
          "type": "address"
        },
        {
          "internalType": "contract IERC20",
          "name": "_paymentToken",
          "type": "address"
        },
        {
          "internalType": "uint256",
          "name": "_rentalRatePerSecond",
          "type": "uint256"
        },
        {
          "internalType": "address",
          "name": "_rentwallet",
          "type": "address"
        }
      ],
      "stateMutability": "nonpayable",
      "type": "constructor"
    },
    {
      "anonymous": false,
      "inputs": [
        {
          "indexed": true,
          "internalType": "address",
          "name": "oldAddress",
          "type": "address"
        },
        {
          "indexed": true,
          "internalType": "address",
          "name": "newAddress",
          "type": "address"
        }
      ],
      "name": "CarNFTUpdated",
      "type": "event"
    },
    {
      "anonymous": false,
      "inputs": [
        {
          "indexed": true,
          "internalType": "address",
          "name": "renter",
          "type": "address"
        },
        {
          "indexed": true,
          "internalType": "uint256",
          "name": "carId",
          "type": "uint256"
        },
        {
          "indexed": false,
          "internalType": "uint256",
          "name": "startTime",
          "type": "uint256"
        }
      ],
      "name": "CarRented",
      "type": "event"
    },
    {
      "anonymous": false,
      "inputs": [
        {
          "indexed": true,
          "internalType": "address",
          "name": "renter",
          "type": "address"
        },
        {
          "indexed": true,
          "internalType": "uint256",
          "name": "carId",
          "type": "uint256"
        },
        {
          "indexed": false,
          "internalType": "uint256",
          "name": "endTime",
          "type": "uint256"
        },
        {
          "indexed": false,
          "internalType": "uint256",
          "name": "fee",
          "type": "uint256"
        }
      ],
      "name": "CarReturned",
      "type": "event"
    },
    {
      "anonymous": false,
      "inputs": [
        {
          "indexed": true,
          "internalType": "address",
          "name": "previousOwner",
          "type": "address"
        },
        {
          "indexed": true,
          "internalType": "address",
          "name": "newOwner",
          "type": "address"
        }
      ],
      "name": "OwnershipTransferred",
      "type": "event"
    },
    {
      "anonymous": false,
      "inputs": [
        {
          "indexed": true,
          "internalType": "address",
          "name": "oldAddress",
          "type": "address"
        },
        {
          "indexed": true,
          "internalType": "address",
          "name": "newAddress",
          "type": "address"
        }
      ],
      "name": "PaymentTokenUpdated",
      "type": "event"
    },
    {
      "inputs": [
        {
          "internalType": "uint256",
          "name": "tokenId",
          "type": "uint256"
        }
      ],
      "name": "_distributeToInvestors",
      "outputs": [],
      "stateMutability": "nonpayable",
      "type": "function"
    },
    {
      "inputs": [
        {
          "internalType": "uint256",
          "name": "id",
          "type": "uint256"
        }
      ],
      "name": "carExists",
      "outputs": [
        {
          "internalType": "bool",
          "name": "",
          "type": "bool"
        }
      ],
      "stateMutability": "view",
      "type": "function"
    },
    {
      "inputs": [],
      "name": "carNFT",
      "outputs": [
        {
          "internalType": "contract CARNFTInterface",
          "name": "",
          "type": "address"
        }
      ],
      "stateMutability": "view",
      "type": "function"
    },
    {
      "inputs": [
        {
          "internalType": "uint256",
          "name": "",
          "type": "uint256"
        }
      ],
      "name": "earnings",
      "outputs": [
        {
          "internalType": "uint256",
          "name": "",
          "type": "uint256"
        }
      ],
      "stateMutability": "view",
      "type": "function"
    },
    {
      "inputs": [
        {
          "internalType": "uint256",
          "name": "carId",
          "type": "uint256"
        }
      ],
      "name": "getTotalAmountDue",
      "outputs": [
        {
          "internalType": "uint256",
          "name": "",
          "type": "uint256"
        }
      ],
      "stateMutability": "view",
      "type": "function"
    },
    {
      "inputs": [],
      "name": "owner",
      "outputs": [
        {
          "internalType": "address",
          "name": "",
          "type": "address"
        }
      ],
      "stateMutability": "view",
      "type": "function"
    },
    {
      "inputs": [],
      "name": "paymentToken",
      "outputs": [
        {
          "internalType": "contract IERC20",
          "name": "",
          "type": "address"
        }
      ],
      "stateMutability": "view",
      "type": "function"
    },
    {
      "inputs": [],
      "name": "renounceOwnership",
      "outputs": [],
      "stateMutability": "nonpayable",
      "type": "function"
    },
    {
      "inputs": [
        {
          "internalType": "uint256",
          "name": "carId",
          "type": "uint256"
        }
      ],
      "name": "rentCar",
      "outputs": [],
      "stateMutability": "nonpayable",
      "type": "function"
    },
    {
      "inputs": [],
      "name": "rentWallet",
      "outputs": [
        {
          "internalType": "address",
          "name": "",
          "type": "address"
        }
      ],
      "stateMutability": "view",
      "type": "function"
    },
    {
      "inputs": [],
      "name": "rentalRatePerSecond",
      "outputs": [
        {
          "internalType": "uint256",
          "name": "",
          "type": "uint256"
        }
      ],
      "stateMutability": "view",
      "type": "function"
    },
    {
      "inputs": [
        {
          "internalType": "uint256",
          "name": "",
          "type": "uint256"
        }
      ],
      "name": "rentals",
      "outputs": [
        {
          "internalType": "address",
          "name": "renter",
          "type": "address"
        },
        {
          "internalType": "uint256",
          "name": "startTime",
          "type": "uint256"
        },
        {
          "internalType": "bool",
          "name": "isActive",
          "type": "bool"
        }
      ],
      "stateMutability": "view",
      "type": "function"
    },
    {
      "inputs": [
        {
          "internalType": "uint256",
          "name": "carId",
          "type": "uint256"
        }
      ],
      "name": "returnCar",
      "outputs": [],
      "stateMutability": "nonpayable",
      "type": "function"
    },
    {
      "inputs": [
        {
          "internalType": "address",
          "name": "newOwner",
          "type": "address"
        }
      ],
      "name": "transferOwnership",
      "outputs": [],
      "stateMutability": "nonpayable",
      "type": "function"
    },
    {
      "inputs": [
        {
          "internalType": "address",
          "name": "newCarToken",
          "type": "address"
        }
      ],
      "name": "updateCarToken",
      "outputs": [],
      "stateMutability": "nonpayable",
      "type": "function"
    },
    {
      "inputs": [
        {
          "internalType": "address",
          "name": "newPaymentToken",
          "type": "address"
        }
      ],
      "name": "updatePaymentToken",
      "outputs": [],
      "stateMutability": "nonpayable",
      "type": "function"
    },
    {
      "inputs": [
        {
          "internalType": "uint256",
          "name": "newRate",
          "type": "uint256"
        }
      ],
      "name": "updateRentalRate",
      "outputs": [],
      "stateMutability": "nonpayable",
      "type": "function"
    }
  ],
  "transactionHash": "0x4e3df212488ffd0d44b2cd86b179724e2909ede379bb08ca3df0123d197d67f8",
  "args": [
    "0x745AcF949a01f2aA44A66708515C1107B145E4d0",
    "0x517006BDbEF9ef537514b5A514E3e3d69B3A98F9",
    1,
    "0xfCc69429171854F1E3Ef4cBF99d035815Ca7f5fB"
  ],
  "numDeployments": 1,
  "solcInputHash": "4fa6c1fd3331dfa206041a3272333328",
  "bytecode": "0x608060405234801561001057600080fd5b506040516200120138038062001201833981016040819052610031916100ea565b61003a33610082565b600180546001600160a01b039586166001600160a01b03199182161790915560028054948616948216949094179093556003919091556004805491909316911617905561013f565b600080546001600160a01b038381166001600160a01b0319831681178455604051919092169283917f8be0079c531659141344cd1fd0a4f28419497f9722a3daafe3b4186f6b6457e09190a35050565b6001600160a01b03811681146100e757600080fd5b50565b6000806000806080858703121561010057600080fd5b845161010b816100d2565b602086015190945061011c816100d2565b604086015160608701519194509250610134816100d2565b939692955090935050565b6110b2806200014f6000396000f3fe608060405234801561001057600080fd5b506004361061010b5760003560e01c8063715018a6116100a2578063ef9b3f2611610071578063ef9b3f2614610271578063efa4688214610294578063f2f17bf51461029d578063f2fde38b146102b0578063f4129095146102c357600080fd5b8063715018a6146101e25780638da5cb5b146101ea578063af94a1d1146101fb578063e1e8aab71461025e57600080fd5b80634ccf1b34116100de5780634ccf1b34146101895780635ae108941461019c578063609660be146101bc5780636d0d3c15146101cf57600080fd5b80630b756e911461011057806317f956e0146101255780631bc7cd3d146101385780633013ce291461015e575b600080fd5b61012361011e366004610e60565b6102d6565b005b610123610133366004610e60565b6102e3565b61014b610146366004610e60565b6105ad565b6040519081526020015b60405180910390f35b600254610171906001600160a01b031681565b6040516001600160a01b039091168152602001610155565b610123610197366004610e8e565b610692565b61014b6101aa366004610e60565b60066020526000908152604090205481565b600454610171906001600160a01b031681565b6101236101dd366004610e60565b610734565b6101236109c0565b6000546001600160a01b0316610171565b610237610209366004610e60565b6005602052600090815260409020805460018201546002909201546001600160a01b03909116919060ff1683565b604080516001600160a01b0390941684526020840192909252151590820152606001610155565b61012361026c366004610e60565b6109d4565b61028461027f366004610e60565b610bfa565b6040519015158152602001610155565b61014b60035481565b600154610171906001600160a01b031681565b6101236102be366004610e8e565b610c7a565b6101236102d1366004610e8e565b610cf3565b6102de610d95565b600355565b60008181526005602052604090206002015460ff1661033d5760405162461bcd60e51b815260206004820152601160248201527010d85c881a5cc81b9bdd081c995b9d1959607a1b60448201526064015b60405180910390fd5b6000818152600560205260409020546001600160a01b0316331461039c5760405162461bcd60e51b81526020600482015260166024820152752cb7ba9030b932903737ba103a3432903932b73a32b960511b6044820152606401610334565b60006103a7826105ad565b600083815260056020526040908190206002908101805460ff191690555490516370a0823160e01b815233600482015291925082916001600160a01b03909116906370a0823190602401602060405180830381865afa15801561040e573d6000803e3d6000fd5b505050506040513d601f19601f820116820180604052508101906104329190610eb2565b10156104805760405162461bcd60e51b815260206004820152601e60248201527f496e73756666696369656e74206465706f73697465642062616c616e636500006044820152606401610334565b600254600480546040516323b872dd60e01b815233928101929092526001600160a01b03908116602483015260448201849052909116906323b872dd906064016020604051808303816000875af11580156104df573d6000803e3d6000fd5b505050506040513d601f19601f820116820180604052508101906105039190610ecb565b6105495760405162461bcd60e51b815260206004820152601760248201527614185e5b595b9d081d1c985b9cd9995c8819985a5b1959604a1b6044820152606401610334565b60008281526006602052604081208054839290610567908490610f03565b90915550506040805142815260208101839052839133917fded66b6d827438d952571acdc5f0eee4e999e03777ddd7a1237f34d0c99cfd81910160405180910390a35050565b60008181526005602052604081206002015460ff166106025760405162461bcd60e51b815260206004820152601160248201527010d85c881a5cc81b9bdd081c995b9d1959607a1b6044820152606401610334565b6000828152600560205260409020546001600160a01b031633146106615760405162461bcd60e51b81526020600482015260166024820152752cb7ba9030b932903737ba103a3432903932b73a32b960511b6044820152606401610334565b60008281526005602052604081206001015461067d9042610f16565b9050600061068a82610def565b949350505050565b61069a610d95565b6001600160a01b0381166106e25760405162461bcd60e51b815260206004820152600f60248201526e496e76616c6964206164647265737360881b6044820152606401610334565b600280546001600160a01b038381166001600160a01b0319831681179093556040519116919082907f5efdfedf5aef119c431263f0656093045dffdf44b3d8f1b0f158dc295c3a0f8e90600090a35050565b61073c610d95565b60008181526006602052604090205468056bc75e2d631000008110156107b65760405162461bcd60e51b815260206004820152602960248201527f4e6f7420656e6f75676820746f6b656e73206561726e65642062792074686973604482015268081d1bdad95b88125160ba1b6064820152608401610334565b60015460405163a584ab2960e01b8152600481018490526000916001600160a01b03169063a584ab2990602401600060405180830381865afa158015610800573d6000803e3d6000fd5b505050506040513d6000823e601f3d908101601f191682016040526108289190810190610f4f565b905060008151116108855760405162461bcd60e51b815260206004820152602160248201527f4e6f206f776e65727320666f756e6420666f72207468697320746f6b656e20496044820152601160fa1b6064820152608401610334565b60008151836108949190611014565b905060005b82518110156109ab5760025460045484516001600160a01b03928316926323b872dd9216908690859081106108d0576108d0611036565b60209081029190910101516040516001600160e01b031960e085901b1681526001600160a01b03928316600482015291166024820152604481018590526064016020604051808303816000875af115801561092f573d6000803e3d6000fd5b505050506040513d601f19601f820116820180604052508101906109539190610ecb565b6109995760405162461bcd60e51b815260206004820152601760248201527614185e5b595b9d081d1c985b9cd9995c8819985a5b1959604a1b6044820152606401610334565b806109a38161104c565b915050610899565b50505060009182525060066020526040812055565b6109c8610d95565b6109d26000610e10565b565b6109dd81610bfa565b610a1d5760405162461bcd60e51b815260206004820152601160248201527018d85c88191bd95cdb89dd08195e1a5cdd607a1b6044820152606401610334565b60008181526005602052604090206002015460ff1615610a775760405162461bcd60e51b815260206004820152601560248201527410d85c881a5cc8185b1c9958591e481c995b9d1959605a1b6044820152606401610334565b6002546040516370a0823160e01b815233600482015268c328093e61ee400000916001600160a01b0316906370a0823190602401602060405180830381865afa158015610ac8573d6000803e3d6000fd5b505050506040513d601f19601f82011682018060405250810190610aec9190610eb2565b1015610b605760405162461bcd60e51b815260206004820152603860248201527f596f75206e656564206174206c65617374206f6e6520646179277320776f727460448201527f68206f6620746f6b656e7320666f722072656e74696e672e00000000000000006064820152608401610334565b60408051606081018252338082524260208084018281526001858701818152600089815260058552889020965187546001600160a01b0319166001600160a01b03909116178755915190860155516002909401805460ff1916941515949094179093559251928352839290917f6c85043a6fb4099fe8bb0eaa93864f46ef1edc7390a41a47414701581f377a9b910160405180910390a350565b60015460405163a584ab2960e01b81526004810183905260009182916001600160a01b039091169063a584ab2990602401600060405180830381865afa158015610c48573d6000803e3d6000fd5b505050506040513d6000823e601f3d908101601f19168201604052610c709190810190610f4f565b5115159392505050565b610c82610d95565b6001600160a01b038116610ce75760405162461bcd60e51b815260206004820152602660248201527f4f776e61626c653a206e6577206f776e657220697320746865207a65726f206160448201526564647265737360d01b6064820152608401610334565b610cf081610e10565b50565b610cfb610d95565b6001600160a01b038116610d435760405162461bcd60e51b815260206004820152600f60248201526e496e76616c6964206164647265737360881b6044820152606401610334565b600180546001600160a01b038381166001600160a01b0319831681179093556040519116919082907fc9048886f75f68c502f0dc59cd67c212fd2d20011ffb224b89edc0e20b7a906890600090a35050565b6000546001600160a01b031633146109d25760405162461bcd60e51b815260206004820181905260248201527f4f776e61626c653a2063616c6c6572206973206e6f7420746865206f776e65726044820152606401610334565b600354600090610e00600184611014565b610e0a9190611065565b92915050565b600080546001600160a01b038381166001600160a01b0319831681178455604051919092169283917f8be0079c531659141344cd1fd0a4f28419497f9722a3daafe3b4186f6b6457e09190a35050565b600060208284031215610e7257600080fd5b5035919050565b6001600160a01b0381168114610cf057600080fd5b600060208284031215610ea057600080fd5b8135610eab81610e79565b9392505050565b600060208284031215610ec457600080fd5b5051919050565b600060208284031215610edd57600080fd5b81518015158114610eab57600080fd5b634e487b7160e01b600052601160045260246000fd5b80820180821115610e0a57610e0a610eed565b81810381811115610e0a57610e0a610eed565b634e487b7160e01b600052604160045260246000fd5b8051610f4a81610e79565b919050565b60006020808385031215610f6257600080fd5b825167ffffffffffffffff80821115610f7a57600080fd5b818501915085601f830112610f8e57600080fd5b815181811115610fa057610fa0610f29565b8060051b604051601f19603f83011681018181108582111715610fc557610fc5610f29565b604052918252848201925083810185019188831115610fe357600080fd5b938501935b8285101561100857610ff985610f3f565b84529385019392850192610fe8565b98975050505050505050565b60008261103157634e487b7160e01b600052601260045260246000fd5b500490565b634e487b7160e01b600052603260045260246000fd5b60006001820161105e5761105e610eed565b5060010190565b8082028115828204841417610e0a57610e0a610eed56fea2646970667358221220c393f63ab6c259516c03294424ea2b3d5f2eaa628b296fa5e72caeb8f74e591c64736f6c63430008130033",
  "devdoc": {
    "kind": "dev",
    "methods": {
      "owner()": {
        "details": "Returns the address of the current owner."
      },
      "renounceOwnership()": {
        "details": "Leaves the contract without owner. It will not be possible to call `onlyOwner` functions. Can only be called by the current owner. NOTE: Renouncing ownership will leave the contract without an owner, thereby disabling any functionality that is only available to the owner."
      },
      "transferOwnership(address)": {
        "details": "Transfers ownership of the contract to a new account (`newOwner`). Can only be called by the current owner."
      }
    },
    "version": 1
  },
  "userdoc": {
    "kind": "user",
    "methods": {},
    "version": 1
  },
  "storageLayout": {
    "storage": [
      {
        "astId": 7,
        "contract": "contracts/Renting.sol:CarLeasing",
        "label": "_owner",
        "offset": 0,
        "slot": "0",
        "type": "t_address"
      },
      {
        "astId": 2972,
        "contract": "contracts/Renting.sol:CarLeasing",
        "label": "carNFT",
        "offset": 0,
        "slot": "1",
        "type": "t_contract(CARNFTInterface)2967"
      },
      {
        "astId": 2975,
        "contract": "contracts/Renting.sol:CarLeasing",
        "label": "paymentToken",
        "offset": 0,
        "slot": "2",
        "type": "t_contract(IERC20)2247"
      },
      {
        "astId": 2977,
        "contract": "contracts/Renting.sol:CarLeasing",
        "label": "rentalRatePerSecond",
        "offset": 0,
        "slot": "3",
        "type": "t_uint256"
      },
      {
        "astId": 2979,
        "contract": "contracts/Renting.sol:CarLeasing",
        "label": "rentWallet",
        "offset": 0,
        "slot": "4",
        "type": "t_address"
      },
      {
        "astId": 2991,
        "contract": "contracts/Renting.sol:CarLeasing",
        "label": "rentals",
        "offset": 0,
        "slot": "5",
        "type": "t_mapping(t_uint256,t_struct(Rental)2986_storage)"
      },
      {
        "astId": 2995,
        "contract": "contracts/Renting.sol:CarLeasing",
        "label": "earnings",
        "offset": 0,
        "slot": "6",
        "type": "t_mapping(t_uint256,t_uint256)"
      }
    ],
    "types": {
      "t_address": {
        "encoding": "inplace",
        "label": "address",
        "numberOfBytes": "20"
      },
      "t_bool": {
        "encoding": "inplace",
        "label": "bool",
        "numberOfBytes": "1"
      },
      "t_contract(CARNFTInterface)2967": {
        "encoding": "inplace",
        "label": "contract CARNFTInterface",
        "numberOfBytes": "20"
      },
      "t_contract(IERC20)2247": {
        "encoding": "inplace",
        "label": "contract IERC20",
        "numberOfBytes": "20"
      },
      "t_mapping(t_uint256,t_struct(Rental)2986_storage)": {
        "encoding": "mapping",
        "key": "t_uint256",
        "label": "mapping(uint256 => struct CarLeasing.Rental)",
        "numberOfBytes": "32",
        "value": "t_struct(Rental)2986_storage"
      },
      "t_mapping(t_uint256,t_uint256)": {
        "encoding": "mapping",
        "key": "t_uint256",
        "label": "mapping(uint256 => uint256)",
        "numberOfBytes": "32",
        "value": "t_uint256"
      },
      "t_struct(Rental)2986_storage": {
        "encoding": "inplace",
        "label": "struct CarLeasing.Rental",
        "members": [
          {
            "astId": 2981,
            "contract": "contracts/Renting.sol:CarLeasing",
            "label": "renter",
            "offset": 0,
            "slot": "0",
            "type": "t_address"
          },
          {
            "astId": 2983,
            "contract": "contracts/Renting.sol:CarLeasing",
            "label": "startTime",
            "offset": 0,
            "slot": "1",
            "type": "t_uint256"
          },
          {
            "astId": 2985,
            "contract": "contracts/Renting.sol:CarLeasing",
            "label": "isActive",
            "offset": 0,
            "slot": "2",
            "type": "t_bool"
          }
        ],
        "numberOfBytes": "96"
      },
      "t_uint256": {
        "encoding": "inplace",
        "label": "uint256",
        "numberOfBytes": "32"
      }
    }
  }
}